:100000000C9434000C9451000C9451000C94510049
:100010000C9451000C9451000C9451000C9451001C
:100020000C9451000C9451000C9451000C9451000C
:100030000C9451000C9451000C9451000C945100FC
:100040000C9453000C9451000C9451000C945100EA
:100050000C9451000C9451000C9451000C945100DC
:100060000C9451000C94510011241FBECFEFD8E026
:10007000DEBFCDBF11E0A0E0B1E0E2E1F2E002C0FE
:1000800005900D92A030B107D9F721E0A0E0B1E0D2
:1000900001C01D92AB30B207E1F70E949D000C94A5
:1000A00007010C9400001F920F920FB60F921124BB
:1000B0002F933F938F939F93AF93BF9380910701AB
:1000C00090910801A0910901B0910A0130910601B7
:1000D00023E0230F2D3720F40196A11DB11D05C08B
:1000E00026E8230F0296A11DB11D209306018093DF
:1000F000070190930801A0930901B0930A01809130
:10010000020190910301A0910401B09105010196B3
:10011000A11DB11D8093020190930301A0930401DE
:10012000B0930501BF91AF919F918F913F912F9116
:100130000F900FBE0F901F901895CF93DF93CDB700
:10014000DEB7CF5FD1090FB6F894DEBF0FBECDBFCB
:10015000789484B5826084BD84B5816084BD85B5A2
:10016000826085BD85B5816085BD80916E008160AE
:1001700080936E0010928100809181008260809354
:100180008100809181008160809381008091800056
:100190008160809380008091B10084608093B10081
:1001A0008091B00081608093B00080917A0084607B
:1001B00080937A0080917A00826080937A008091A7
:1001C0007A00816080937A0080917A0080688093C1
:1001D0007A001092C10010920101109200019E015C
:1001E00033951982FE01319680E090E041914111F2
:1001F00001C001962E173F07C9F7892B91F700E040
:1002000010E001151105E9F30E940000FACFF894FF
:02021000FFCF1E
:00000001FF
