:100000000C9434000C9451000C9451000C94510049
:100010000C9451000C9451000C9451000C9451001C
:100020000C9451000C9451000C9451000C9451000C
:100030000C9451000C9451000C9451000C945100FC
:100040000C9453000C9451000C9451000C945100EA
:100050000C9451000C9451000C9451000C945100DC
:100060000C9451000C94510011241FBECFEFD8E026
:10007000DEBFCDBF11E0A0E0B1E0E2EEF3E002C0F0
:1000800005900D92A430B107D9F722E0A4E0B1E0C9
:1000900001C01D92AE30B207E1F70E949D000C94A2
:1000A000EF010C9400001F920F920FB60F921124D3
:1000B0002F933F938F939F93AF93BF9380910A02A7
:1000C00090910B02A0910C02B0910D0230910902A7
:1000D00023E0230F2D3720F40196A11DB11D05C08B
:1000E00026E8230F0296A11DB11D209309028093DB
:1000F0000A0290930B02A0930C02B0930D02809120
:10010000050290910602A0910702B09108020196A3
:10011000A11DB11D8093050290930602A0930702D2
:10012000B0930802BF91AF919F918F913F912F9112
:100130000F900FBE0F901F901895789484B5826031
:1001400084BD84B5816084BD85B5826085BD85B57B
:10015000816085BD80916E00816080936E001092F9
:100160008100809181008260809381008091810074
:100170008160809381008091800081608093800005
:100180008091B10084608093B1008091B000816063
:100190008093B00080917A00846080937A0080918F
:1001A0007A00826080937A0080917A0081608093E7
:1001B0007A0080917A00806880937A001092C10062
:1001C0001092040210920302109204010E94350161
:1001D000FDCF08958F929F92AF92BF92CF92DF9200
:1001E000EF92FF92CF93DF93EC01688179818A814E
:1001F0009B81611571058105910521F464E279ED1A
:100200008BE597E02DE133EF41E050E00E948C0157
:1002100049015A019B01AC01A7EAB1E40E94AB017C
:100220006B017C01ACEEB4EFA50194010E94B90111
:10023000DC01CB018C0D9D1DAE1DBF1DB7FF03C0A2
:100240000197A109B04888839983AA83BB83BC0125
:10025000CD019F77DF91CF91FF90EF90DF90CF900E
:10026000BF90AF909F908F9008958F929F92AF9282
:10027000BF92CF92DF92EF92FF9260910001709156
:1002800001018091020190910301611571058105C1
:10029000910521F464E279ED8BE597E02DE133EFF0
:1002A00041E050E00E948C0149015A019B01AC01E0
:1002B000A7EAB1E40E94AB016B017C01ACEEB4EFA4
:1002C000A50194010E94B901DC01CB018C0D9D1D9B
:1002D000AE1DBF1DB7FF03C00197A109B0488093B1
:1002E000000190930101A0930201B0930301BC01AE
:1002F000CD019F77FF90EF90DF90CF90BF90AF90B0
:100300009F908F90089560930001709301018093F6
:100310000201909303010895052E97FB1EF40094AB
:100320000E94A30157FD07D00E94BE0107FC03D025
:100330004EF40C94A30150954095309521953F4F74
:100340004F4F5F4F089590958095709561957F4FC1
:100350008F4F9F4F08950E94E001A59F900DB49F7D
:10036000900DA49F800D911D11240895B7FF0C944A
:10037000AB010E94AB01821B930B0895A1E21A2EE0
:10038000AA1BBB1BFD010DC0AA1FBB1FEE1FFF1F39
:10039000A217B307E407F50720F0A21BB30BE40B89
:1003A000F50B661F771F881F991F1A9469F76095D0
:1003B0007095809590959B01AC01BD01CF0108958A
:1003C000A29FB001B39FC001A39F700D811D112496
:1003D000911DB29F700D811D1124911D0895F894F7
:0203E000FFCF4D
:0403E2000100000016
:107E0000112484B714BE81FFF0D085E080938100F7
:107E100082E08093C00088E18093C10086E0809377
:107E2000C20080E18093C4008EE0C9D0259A86E02C
:107E300020E33CEF91E0309385002093840096BBD3
:107E4000B09BFECF1D9AA8958150A9F7CC24DD24C4
:107E500088248394B5E0AB2EA1E19A2EF3E0BF2EE7
:107E6000A2D0813461F49FD0082FAFD0023811F036
:107E7000013811F484E001C083E08DD089C08234E0
:107E800011F484E103C0853419F485E0A6D080C0E4
:107E9000853579F488D0E82EFF2485D0082F10E0AE
:107EA000102F00270E291F29000F111F8ED06801E7
:107EB0006FC0863521F484E090D080E0DECF843638
:107EC00009F040C070D06FD0082F6DD080E0C81688
:107ED00080E7D80618F4F601B7BEE895C0E0D1E017
:107EE00062D089930C17E1F7F0E0CF16F0E7DF06D8
:107EF00018F0F601B7BEE89568D007B600FCFDCFD4
:107F0000A601A0E0B1E02C9130E011968C91119780
:107F100090E0982F8827822B932B1296FA010C0160
:107F200087BEE89511244E5F5F4FF1E0A038BF0790
:107F300051F7F601A7BEE89507B600FCFDCF97BE46
:107F4000E89526C08437B1F42ED02DD0F82E2BD052
:107F50003CD0F601EF2C8F010F5F1F4F84911BD097
:107F6000EA94F801C1F70894C11CD11CFA94CF0C13
:107F7000D11C0EC0853739F428D08EE10CD085E9AC
:107F80000AD08FE07ACF813511F488E018D01DD067
:107F900080E101D065CF982F8091C00085FFFCCF94
:107FA0009093C60008958091C00087FFFCCF809118
:107FB000C00084FD01C0A8958091C6000895E0E648
:107FC000F0E098E1908380830895EDDF803219F02E
:107FD00088E0F5DFFFCF84E1DECF1F93182FE3DFCA
:107FE0001150E9F7F2DF1F91089580E0E8DFEE27F6
:047FF000FF270994CA
:027FFE00040479
:0400000300007E007B
:00000001FF
