:100000000C9452040C947A040C947A040C947A04A0
:100010000C947A040C947A040C947A040C947A0468
:100020000C947A040C947A040C947A040C947A0458
:100030000C947A040C947A040C947A040C947A0448
:100040000C948C0A0C947A040C945A0A0C94340A7A
:100050000C947A040C947A040C947A040C947A0428
:100060000C94D60A0C947A04FB00003E000B003678
:10007000000100020003000000650054FFEF0000D3
:10008000FA80000B12820001000200000000000054
:10009000000000000000000000280000FFFF458174
:1000A000FFFFFA7200000000000003E800000001FA
:1000B00000017FFFFFFE8001001B00000000000028
:1000C00000000000000000000040000040000000B0
:1000D00002CB47A22000000020000000000000002A
:1000E000400000006000000041FF000000000B2AFB
:1000F0000000165500002182FD872650FD8000007B
:10010000001F00000005800000000000000100004A
:100110000002000000030000400000000000046F27
:100120000002653200005EC04000000000000000D8
:100130000000000000000000FB8C6F5DFD5D08D931
:10014000007C733B006C12CC3200139D3200D0D681
:1001500032000800400001F4FFE680790200000050
:100160000000D0D600002710FB0000004000000077
:10017000000000000000000000000001000000007E
:1001800000000100010000000000FA36FFBC308EC4
:100190000005FBF0FFD95BC8FFD09ABE000010A994
:1001A000FFF41EB200CEBBF7000000010000000407
:1001B000000200020200000CFFC28000000180006B
:1001C00000CF8000400000000000000000000000A0
:1001D0000000060000000014000000000000000005
:1001E000000000000000000000000000000000000F
:1001F00000000000000000000923A13500000000FD
:10020000000000000000000000000000033F68B68E
:10021000793528BCC67ED16C8000FFFF400000000D
:100220000000B26A000000000000000000000000B2
:1002300000003FF00000003000000000000000005F
:1002400000000000000000000000000000000000AE
:1002500000000000000040000000254D002F706DE0
:10026000000005AE000C02D0000000000065005444
:10027000FFEF00000000000000000100004400014A
:1002800000058BC1000001000000000000650000B7
:1002900000540000FFEF000000000000000000001C
:1002A000000000000000000000000000000000004E
:1002B000000000000000000000000000000000003E
:1002C000000000000000000000000001000000022B
:1002D000000000000000000000000000000000001E
:1002E000000000000000000000000000000000000E
:1002F0000000000000000000001B000000000000E3
:1003000000000000000000000000000000000000ED
:1003100000000000000000000000000000000000DD
:100320000000000000000000001B000000000000B2
:1003300000000000000000000000000000000000BD
:1003400000000000000000000000000000000000AD
:10035000000000000000000000000000000000009D
:100360000000000000000000D8DCBAA2F1DEB2B844
:10037000B4A88191F74A907F916AF3F9DBA8F9B0AC
:10038000BAA080F2CE81F3C2F1C1F2C3F3CCA2B223
:1003900080F1C6D880BAA7DFDFDFF2A7C3CBC5B62E
:1003A000F087A2942448703C95406834589B78A20A
:1003B000F183922D557DD8B1B4B8A1D09180F2705F
:1003C000F370F27C80A8F101B09887D943D886C930
:1003D00088BAA1F20EB89780F1A9DFDFDFAADFDFCC
:1003E000DFF2AA4CCD6CA90CC92C97979797F1A96D
:1003F00089264666B0B4BA80ACDEF2CAF1B28C028D
:10040000A9B69800890E161EB8A9B4992C547CB0D0
:100410008AA896365676F1B9AFB4B083C0B8A8971B
:1004200011B18F98B9AFF0240844106418F1A329D2
:10043000557DAF83B593AFF0002850F1A3869F613F
:10044000A6DADEDFD9FAA38696DB31A6D9F8DFBAC1
:10045000A68FC2C5C7B28CC1B8A2DFDFDFA3DFDFC2
:10046000DFD8D8F1B8A8B286B4980D355DB8AA988F
:10047000B0872D353DB2B6BAAF8C96198F9FA70EB7
:10048000161EB49AB8AA872C547CB9A3DEDFDFA36A
:10049000B180F2C4CDC9F1B8A9B499830D355D8995
:1004A000B9A32D557DB593A30E161EA92C547CB867
:1004B000B4B0F19783A81184A50998A383F0DA2436
:1004C0000844106418D8F1A529557DA58595021A10
:1004D0002E3A565A4048F9F3A3D9F8F098832408E5
:1004E000441064189782A8F111F098A224084410CF
:1004F0006418DAF3DED883A59401D9A302F1A2C36C
:10050000C5C7D8F18492A24DDA2AD84869D92AD829
:100510006855DA32D85071D932D8705DDA3AD85885
:1005200079D93AD87893A34DDA2AD84869D92AD804
:100530006855DA32D85071D932D8705DDA3AD85865
:1005400079D93AD878A88A9AF02850789EF38818F2
:10055000F19F1D98A8D908D8C89F129EF315A8DA54
:100560001210D8F1AFC8978734B5B994A421F3D944
:1005700022D8F22DF3D92AD8F235F3D932D881A472
:10058000606061D961D86C6869D969D8747071D9B3
:1005900071D8B1A384193D5DA3831A3E5E931030D8
:1005A000811011B8B0AF8F94F2DA3ED8B49AA88710
:1005B00029DAF8D8879A35DAF8D8879A3DDAF8D860
:1005C000B1B9A49885022E56A581000C14A397B04A
:1005D0008AF12DD928D84DD948D86DD968D8B18499
:1005E0000DDA0ED8A32983DA2C0ED8A3844983DA36
:1005F0002C4C0ED8B8B0A88A9AF520AADADFD8A871
:1006000040AAD0DADED8A860AADAD0DFD8F197867F
:10061000A8319B069907AB9728889BF00C201440C3
:10062000B8B0B4A88C9CF0042851791D301438B2AD
:1006300082ABD0982C505078789BF11AB0F08A9CFD
:10064000A82951798B2951798A2470598B205871A6
:100650008A4469388B3940688A6448318B304960F4
:10066000A588200971584468113964493019F1ACE2
:10067000002C547CF08CA804285078F1889726A888
:100680005998AC8C02264666F0899CA82951792499
:100690007059446938644831A98809205970AB11F0
:1006A000384069A8193148608CA83C415C207C0026
:1006B000F187981986A86E767EA999882D557D9E1A
:1006C000B9A38A228A6E8A568A5E9FB1830626461D
:1006D000660E2E4E6E9DB8AD002C547CF2B18CB4DB
:1006E00099B9A32D557D8191AC38AD3AB58391ACC4
:1006F0002DD928D84DD948D86DD968D88C9DAE2928
:10070000D904AED851D904AED879D904D881F39D93
:10071000AD008DAE1981ADD901D8F2AEDA26D88EF2
:10072000912983A7D9ADADADADF32AD8D8F1B0AC3E
:1007300089913E5E76F3AC2E2EF1B18C5A9CAC2C96
:100740002828289CAC3018A8988128343C9724A7E6
:1007500028343C9C24F2B089AC912C4C6C8A9B2DA3
:10076000D9D8D851D9D8D879D9D8D8F19E88A33139
:10077000DAD8D8912DD928D84DD948D86DD968D88C
:10078000B18393353D8025DAD8D88569DAD8D8B4D5
:100790009381A328343CF3AB8BF8A391B609B4D969
:1007A000ABDEFAB0879CB9A3DDF1202830389AF18E
:1007B0002830389DF1A3A3A3A3F2A3B49080F2A3A1
:1007C000A3A3A3A3A3A3A3A3A3B2A3A3A3A3A3A3EA
:1007D000B087B599F128303898F1A3A3A3A397A3C4
:1007E000A3A3A3F39BA330DCB9A7F1262626FED84A
:1007F000FF526573657474696E67206D656D6F7205
:10080000792062616E6B2073656C656374696F6ECD
:1008100020746F20302E2E2E005265766973696F1A
:100820006E204020757365725B31365D5B365D20EE
:100830003D2000436865636B696E67206861726480
:1008400077617265207265766973696F6E2E2E2EE0
:100850000000000000240027002A000000000025FE
:100860000028002B0004040404040404040202020F
:1008700002020203030303030301020408102040E1
:10088000800102040810200102040810200000006A
:10089000080002010000030407000000000000003F
:1008A0000000F50B11241FBECFEFD8E0DEBFCDBF97
:1008B00011E0A0E0B1E0E2EFFEE102C005900D9290
:1008C000AE32B107D9F722E0AEE2B1E001C01D922D
:1008D000AB3AB207E1F714E0C2E5D4E004C02197D7
:1008E000FE010E943F0EC135D107C9F70E94310CAD
:1008F0000C94770F0C940000982F2091EA0181E06E
:10090000213208F043C08091C6018111FCCF809153
:10091000E90132E03093C6019093C5019FEF9093B7
:10092000C4011092C3012093C201A9ECB1E0E2EA34
:10093000F1E090E0291331C01092A1019091A10142
:10094000880F892B8093A1018091A001813049F506
:100950001092A0018091A1018093BB008091BC0006
:1009600083FDF8CF85EC8093BC008091C601823076
:10097000E1F38091C4018F3FB1F08091C4018032D6
:10098000A1F08091C401803391F084E01092C801FD
:100990001092EA011092C70108953D9131939F5F33
:1009A000C9CF85EEE0CF80E0F1CF82E0EFCF83E0EA
:1009B000EDCF90E0FC01E357F74F2491FC01E7589D
:1009C000F74F3491FC01EB59F74FE491EE23B1F06E
:1009D000222339F02330E9F090F4213001F1223064
:1009E00011F1F0E0EE0FFF1FE55AF74FA591B4911A
:1009F0008FB7F894EC913E2B3C938FBF089527302E
:100A0000A9F02830C9F0243061F7809180008F7DF3
:100A100003C0809180008F7780938000E2CF84B5FF
:100A20008F7784BDDECF84B58F7DFBCF8091B00002
:100A30008F778093B000D5CF8091B0008F7DF9CFB4
:100A400090E0FC01E758F74F24918B59974FFC0138
:100A50008491882399F090E0880F991FFC01EF5A48
:100A6000F74FA591B491FC01E55AF74F8591949108
:100A70008FB7F894EC91E22BEC938FBF0895FC01B3
:100A8000538D448D252F30E0842F90E0821B930BF3
:100A9000541710F0CF96089501970895FC01918D99
:100AA000828D981761F0A28DAE0FBF2FB11D5D969C
:100AB0008C91928D9F5F9F73928F90E008958FEF3E
:100AC0009FEF0895FC01918D828D981731F0828DF2
:100AD000E80FF11D858D90E008958FEF9FEF089549
:100AE000FC01918D228D892F90E0805C9F4F821BAD
:100AF00091098F7399270895FC01A48DA80FB92F30
:100B0000B11DA35ABF4F2C91848D90E001968F7335
:100B10009927848FA689B7892C93A089B1898C9154
:100B2000837080648C93938D848D981306C00288A3
:100B3000F389E02D80818F7D80830895EF92FF926D
:100B40000F931F93CF93DF93EC0181E0888F9B8DF0
:100B50008C8D98131AC0E889F989808185FF15C0AA
:100B60009FB7F894EE89FF896083E889F9898081CD
:100B70008370806480839FBF81E090E0DF91CF919C
:100B80001F910F91FF90EF900895F62E0B8D10E0BE
:100B90000F5F1F4F0F731127E02E8C8D8E110CC02D
:100BA0000FB607FCFACFE889F989808185FFF5CF78
:100BB000CE010E947C05F1CFEB8DEC0FFD2FF11DD6
:100BC000E35AFF4FF0829FB7F8940B8FEA89FB89B5
:100BD00080818062CFCF0F931F93CF93DF938C01DF
:100BE000D0E0C0E0F801EC0FFD1F6491662341F0F6
:100BF0008BEE91E00E949E05892B11F02196F2CF99
:100C0000CE01DF91CF911F910F910895CF93DF9384
:100C1000EC01888D8823B9F0AA89BB89E889F98914
:100C20008C9185FD03C0808186FD0DC00FB607FC49
:100C3000F7CF8C9185FFF2CF808185FFEDCFCE017C
:100C40000E947C05E9CFDF91CF9108958BEE91E072
:100C50000E94700521E0892B09F420E0822F08957D
:100C600080E090E0892B29F00E94260681110C94E7
:100C70000000089508950895AF92BF92CF92DF9239
:100C8000EF92FF920F931F93CF93DF936C017B0141
:100C90008B01040F151FEB015E01AE18BF08C017D2
:100CA000D10759F06991D601ED91FC910190F08145
:100CB000E02DC6010995892B79F7C501DF91CF9108
:100CC0001F910F91FF90EF90DF90CF90BF90AF906A
:100CD00008953FB7F8948091960190919701A09163
:100CE0009801B091990126B5A89B05C02F3F19F036
:100CF0000196A11DB11D3FBFBA2FA92F982F88279C
:100D0000BC01CD01620F711D811D911D42E0660F76
:100D1000771F881F991F4A95D1F708958F929F9248
:100D2000AF92BF92CF92DF92EF92FF924B015C01A4
:100D30000E9469066B017C010E9469066C197D099D
:100D40008E099F09683E734081059105A8F321E053
:100D5000821A9108A108B10888EEC80E83E0D81E57
:100D6000E11CF11C81149104A104B10429F7FF9046
:100D7000EF90DF90CF90BF90AF909F908F900895AD
:100D800085ED8093BC008091BC0084FDFCCF109267
:100D9000C601089520916E01260F3327331F21329B
:100DA0003105ECF42091C601FC0190E080E0243094
:100DB00069F082E00895A0916E012191AC01425B3F
:100DC0005E4FA40FB52FB11D2C930196861798F393
:100DD00080916E01680F60936E0180E0089581E05C
:100DE00008950895E0919F0180919E01E81730F4E5
:100DF000F0E0E25DFE4F808190E008958FEF9FEF7D
:100E0000089590919F0180919E012FEF3FEF9817D9
:100E100048F4E92FF0E0E25DFE4F208130E09F5F73
:100E200090939F01C901089580919E0190919F0127
:100E3000891B990B0895CF92DF92EF92FF920F9347
:100E40001F93CF93DF937C01CB018A012091C701CF
:100E5000222389F0EB016B01C40ED51ECC15DD05F4
:100E600069F06991D701ED91FC910190F081E02D3D
:100E7000C7010995F3CF642F0E94CA06C801DF910C
:100E8000CF911F910F91FF90EF90DF90CF90089539
:100E9000CF93DF931F92CDB7DEB769832091C7014F
:100EA0002223F9F02091EA01203258F021E030E0CD
:100EB000FC013383228390E080E00F90DF91CF919B
:100EC00008958091C801E82FF0E0E753FE4F998123
:100ED00090838F5F8093C8018093EA0181E090E066
:100EE000ECCF61E0CE0101960E94CA06F7CFCF9306
:100EF000DF93EA0191E09093C7018093E90110929A
:100F0000C8011092EA0188E892E00E9448076981CE
:100F100088E892E00E944807688188E892E00E9491
:100F2000480781E00E947C0491E0811190E0892FC4
:100F3000DF91CF91089590E080E00895FF920F93A4
:100F40001F93CF93DF93042FF22E132F91E09093F2
:100F5000C7018093E9011092C8011092EA0188E864
:100F600092E00E944807CF2DD12F0C0F1D2F111D8D
:100F7000C017D10731F0699188E892E00E944807D4
:100F8000F7CF81E00E947C0491E0811190E0892FED
:100F9000DF91CF911F910F91FF900895CF93DF9331
:100FA0001F92CDB7DEB749839E012F5F3F4F41E0CF
:100FB0000E949E070F90DF91CF91089542E050E08C
:100FC0006AE271E08BEE91E00C943C062F923F9226
:100FD0004F925F926F927F928F929F92AF92BF9249
:100FE000CF92DF92EF92FF920F931F93CF93DF93F5
:100FF00000D000D01F92CDB7DEB7D82EC62E4D83BD
:1010000019018FB7F8948090920190909301A0906D
:101010009401B09095018FBF2D2D220F2983E12CD3
:101020001C82FF24F3949D81892F90E09B838A8307
:101030002801712C612C2D81E21608F099C0F092E4
:10104000C701D092E9011092C8011092EA016C2DFB
:1010500088E892E00E94480781E00E947C04F092B8
:10106000C7011092C8011092EA018091C601811156
:10107000FCCF8A819B818E1991098132910514F0F0
:1010800080E290E0813208F080E2F092C601F092B6
:10109000C5019FEF9093C4011092C301980F9093E4
:1010A000C201F092A1019091A1012981922B90930C
:1010B000A1019091A0019130C9F51092A0019091E9
:1010C000A1019093BB009091BC0093FDF8CF95ECEB
:1010D0009093BC009091C6019130E1F39091C301CF
:1010E000981710F48091C301E2EAF1E0AEE2B1E0BA
:1010F00090E098131FC010929F0190939E019091D1
:101100009E0180919F01981769F101151105B1F4B5
:1011100088E892E00E940107F1019C81E90FF11D2E
:1011200097FDFA9580839F5F9C83E9CF25EE2093FE
:10113000BC00D0CF21912D939F5FDBCF2FB7F894C8
:101140008091920190919301A0919401B0919501A9
:101150002FBF88199909AA09BB0984159505A60509
:10116000B705B0F28D81813208F080E2E80E63CFDE
:101170000115110509F12FB7F89480919201909112
:101180009301A0919401B09195012FBF88199909FD
:10119000AA09BB0930E020E080179107A207B30736
:1011A00058F02C81822F220F990B2D8128171906B8
:1011B00019F014F08FEF8C838C810F900F900F90AB
:1011C0000F900F90DF91CF911F910F91FF90EF90B3
:1011D000DF90CF90BF90AF909F908F907F906F9057
:1011E0005F904F903F902F9008952F923F924F9293
:1011F0005F926F927F928F929F92AF92BF92CF92A7
:10120000DF92EF92FF920F931F93CF93DF933C01F6
:101210005B01242E522E302E6DE6809194020E94A6
:10122000CE07452D6EE6809194020E94CE0780E1A4
:1012300090E00E94450E6C01D0E0C0E0002329F050
:1012400080E190E00E94450EEC01F12CE12CC701F9
:1012500040964A2C4E18A816B90610F080E1482E88
:1012600080E091E0851991094816190619F014F0EB
:10127000452C4194332079F0DE0190E080E0930129
:101280002E0D3F1D841550F4F901E80FF91FE4916C
:10129000ED930196F7CFE301CE0DDF1D9E01442DA6
:1012A0006FE6809194020E949E07842C912CC114B9
:1012B000D104D1F1422D4F716DE6809194020E94CC
:1012C000CE07452D6EE6809194020E94CE0708EE6F
:1012D00013E09601442D6FE6809194020E94E60788
:1012E000A401B601CE010E946A0F892BE9F0C60164
:1012F0000E94E10E332021F0CE010E94E10E312C3C
:10130000832DDF91CF911F910F91FF90EF90DF9090
:10131000CF90BF90AF909F908F907F906F905F9095
:101320004F903F902F900895E80CF91CEA14FB04AD
:10133000A8F4540C09F42394422D4F716DE680916A
:1013400094020E94CE07452D6EE6809194020E9481
:10135000CE077DCFCE010E94E10ED2CFC6010E9402
:10136000E10E3110F7CF33243394CACFBF92CF921E
:10137000DF92EF92FF920F931F93CF93DF931F9211
:10138000CDB7DEB7F82EE62EC42EB22ED02E08EE44
:1013900013E09E012F5F3F4F41E00E94E607882344
:1013A00071F18C2D8B19990BAC014F5F5F4F81E070
:1013B00090E002C0880F991FBA94E2F70197042EBB
:1013C00001C0880F0A94EAF70D2D01C0000F4A955D
:1013D000EAF7482F4095998149238023482B498378
:1013E0006E2D8F2D0E94CE070F90DF91CF911F9110
:1013F0000F91FF90EF90DF90CF90BF90089580E025
:10140000F3CFCF92DF92EF92FF920F931F93CF9380
:10141000DF931F92CDB7DEB7F82EE62EC42ED22E64
:1014200008EE13E09E012F5F3F4F41E00E94E60768
:1014300081E090E001C0880FCA94EAF74981DD207D
:1014400081F0482B49836E2D8F2D0E94CE070F907F
:10145000DF91CF911F910F91FF90EF90DF90CF9090
:10146000089580954823EECF1F920F920FB60F92EA
:1014700011242F933F934F935F936F937F938F9399
:101480009F93AF93BF93EF93FF938BEE91E00E94F6
:101490007C05FF91EF91BF91AF919F918F917F91CB
:1014A0006F915F914F913F912F910F900FBE0F90D1
:1014B0001F9018951F920F920FB60F9211242F9321
:1014C0008F939F93EF93FF93E091FB01F091FC01C9
:1014D0008081E0910102F091020282FD1BC09081A7
:1014E000809104028F5F8F7320910502821741F073
:1014F000E0910402F0E0E551FE4F958F80930402E5
:10150000FF91EF919F918F912F910F900FBE0F90B0
:101510001F9018958081F4CF1F920F920FB60F92F3
:1015200011242F933F938F939F93AF93BF938091F9
:10153000920190919301A0919401B0919501309105
:10154000910123E0230F2D3758F50196A11DB11D00
:10155000209391018093920190939301A093940121
:10156000B09395018091960190919701A091980177
:10157000B09199010196A11DB11D809396019093A0
:101580009701A0939801B0939901BF91AF919F915A
:101590008F913F912F910F900FBE0F901F90189534
:1015A00026E8230F0296A11DB11DD2CF1F920F92E4
:1015B0000FB60F9211242F933F934F935F936F9326
:1015C0007F938F939F93AF93BF93EF93FF938091FC
:1015D000B900887F803609F44AC0F0F5883209F4F2
:1015E000A7C018F5803109F49BC0B8F4882309F42A
:1015F000F9C0883009F494C0FF91EF91BF91AF9189
:101600009F918F917F916F915F914F913F912F911A
:101610000F900FBE0F901F901895883109F488C065
:10162000803251F78093C40114C0803409F49DC006
:1016300040F48033B9F38833F9F68093C40185EC24
:10164000B0C0803509F485C0883509F496C0883467
:1016500099F60E94C006D0CF883909F48CC038F5BD
:10166000883729F050F4883611F0803729F683E066
:101670008093C6011092900157C0883809F47BC04E
:10168000803919F0803809F0B7CF8091900180320D
:1016900008F071C0E091900181E08E0F809390017D
:1016A0008091BB00F0E0E059FE4F80833DC0803B5D
:1016B00039F0E0F4803A09F479C0883A09F09CCF17
:1016C00084E08093C60110926F0110926E01E09148
:1016D0009C01F0919D01099580916E0181110FC0CF
:1016E00081E080936E0110924E0109C0803C09F4A4
:1016F000A6CF883C09F4A3CF883B09F07DCFE091C9
:101700006F0181E08E0F80936F01F0E0E25BFE4F8E
:1017100080818093BB0090916F0180916E0129C000
:101720008091A1018093BB0085EC8093BC0064CFC5
:101730009091C3018091C201981758F5E091C301BF
:1017400081E08E0F8093C301F0E0EE55FE4F808163
:10175000E9CFE091C30181E08E0F8093C3018091B6
:10176000BB00F0E0EE55FE4F80839091C301809165
:10177000C2019817C8F285E8D8CFE091C30181E093
:101780008E0F8093C3018091BB00F0E0EE55FE4FB9
:1017900080838091C50181115CCF81E08093A0019D
:1017A00084EA8093BC001092C60126CF85EC80931A
:1017B000BC001092C60180919001803230F4E0911B
:1017C0009001F0E0E059FE4F10826091900170E0CE
:1017D000E0919A01F0919B0180E791E009951092C8
:1017E00090010ACF1092C40134CFEBEEF1E01382E6
:1017F000128288EE93E0A0E0B0E084839583A68314
:10180000B7832AE031E03183208325EC30E035874F
:10181000248724EC30E03787268720EC30E0318BBA
:10182000208B21EC30E0338B228B22EC30E0358BA7
:10183000248B26EC30E0378B268B118E128E138E84
:10184000148EE8E8F2E01382128284839583A683E3
:10185000B7838CE191E09183808388E68093940242
:101860000895CF93DF93CDB7DEB7A5970FB6F89461
:10187000DEBF0FBECDBF789484B5826084BD84B5D1
:10188000816084BD85B5826085BD85B5816085BD7B
:1018900080916E00816080936E0010928100809133
:1018A00081008260809381008091810081608093BB
:1018B0008100809180008160809380008091B100E0
:1018C00084608093B1008091B00081608093B0000B
:1018D00080917A00846080937A0080917A0082609F
:1018E00080937A0080917A00816080937A00809161
:1018F0007A00806880937A001092C10085E00E948F
:10190000200589E00E94200586E00E9420058AE0EB
:101910000E94200510929F0110929E011092C80112
:101920001092EA011092C60181E08093C5011092E5
:10193000A00182E10E94D90483E10E94D904809130
:10194000B9008E7F8093B9008091B9008D7F80931C
:10195000B90088E48093B80085E48093BC008AE3F2
:1019600096E090939D0180939C018BE396E0909389
:101970009B0180939A0101E023E042E06BE68091B5
:1019800094020E94B60900E022E044E06BE18091FD
:1019900094020E94B60922E044E06CE18091940236
:1019A0000E94B60920E046E06BE6809194020E9416
:1019B000010A21E047E06BE6809194020E94010A4F
:1019C0006EE170E080E090E00E948E0620E046E04C
:1019D0006BE6809194020E94010A40E76DE68091D7
:1019E00094020E94CE0746E06EE6809194020E9427
:1019F000CE0783E398E00E94EB050E94DE0789E1B1
:101A000098E00E94EB0508EE13E025E932E041E0A2
:101A10006FE6809194020E94E6078091950290E023
:101A2000B0E0A0E019A2FE01B196AC01BD014F707B
:101A300055276627772724E0B695A795979587952C
:101A40002A95D1F74A300CF018C1405D42930097B7
:101A5000A105B10551F7309769F0DF010D90002025
:101A6000E9F71197AD014E1B5F0BBF018BEE91E0C3
:101A70000E943C060E94DE0781EF97E00E94EB0582
:101A80000E94DE0740E06DE6809194020E94CE073E
:101A90004FE765E2809194020E94CE0720E045E086
:101AA0006AE6809194020E94010A48E665E280910C
:101AB00094020E94CE0721E041E06AE68091940200
:101AC0000E94010A64E170E080E090E00E948E06CE
:101AD00003E023E042E06BE6809194020E94B609A5
:101AE00042E168E3809194020E94CE0744E069E1FC
:101AF000809194020E94CE0701E023E045E06AE174
:101B0000809194020E94B60903E023E042E06AE17A
:101B1000809194020E94B60922E044E06BE180913A
:101B200094020E94B60901E020E040E069E877E015
:101B300088E690E00E94F50811E0882309F464C06B
:101B4000198284E68A8300E026E142E062E070E0E8
:101B5000CE0101960E94F50843E060E7809194026F
:101B60000E94CE0740E061E7809194020E94CE0778
:101B700020E040E060E0809194020E94010A42E08F
:101B80006FE1809194020E94CE074CE961E280915E
:101B900094020E94CE0740E560E2809194020E9488
:101BA000CE0740E062E2809194020E94CE0721E0DD
:101BB00046E06AE6809194020E94010A21E043E037
:101BC0006AE6809194020E94010A20E047E06AE6FA
:101BD000809194020E94010A8AE290E09093A6020A
:101BE0008093A50221E042E06AE6809194020E947F
:101BF000010A08EE13E025E932E041E06AE3809152
:101C000094020E94E60710E08091940226E130E001
:101C10003DA32CA3AE014C5D5F4F63E10E947707AB
:101C20008091940223E030E03BA32AA3AE014E5DF5
:101C30005F4F65E10E9477078091940222E030E0D7
:101C40003A832983AE014F5F5F4F67E10E947707B8
:101C5000111107C021E047E06AE6809194020E94DA
:101C6000010A00E010E001151105E9F30E942606C3
:101C70008823C9F30E940000F6CF495CE7CEEE0F3F
:101C8000FF1F0590F491E02D09940F931F93CF93BC
:101C9000DF938230910510F482E090E0E091A90298
:101CA000F091AA0230E020E0B0E0A0E0309799F493
:101CB0002115310509F44AC0281B390B24303105A0
:101CC000D8F58A819B816115710589F1FB019383A8
:101CD0008283FE0111C04081518102811381481726
:101CE0005907E0F04817590799F4109761F01296D8
:101CF0000C93129713961C933296CF01DF91CF91DC
:101D00001F910F9108950093A9021093AA02F4CF96
:101D10002115310551F04217530738F0A901DB01B5
:101D20009A01BD01DF01F801C1CFEF01F9CF909316
:101D3000AA028093A902CDCFFE01E20FF31F819387
:101D400091932250310939832883D7CF2091A7025C
:101D50003091A802232B41F420910201309103011C
:101D60003093A8022093A702209100013091010135
:101D70002115310541F42DB73EB740910401509132
:101D80000501241B350BE091A702F091A802E21790
:101D9000F307A0F42E1B3F0B2817390778F0AC018E
:101DA0004E5F5F4F2417350748F04E0F5F1F50936B
:101DB000A8024093A702819391939FCFF0E0E0E0C7
:101DC0009CCFCF93DF930097E9F0FC013297138209
:101DD0001282A091A902B091AA02ED0130E020E0A8
:101DE0001097A1F420813181820F931F2091A702C7
:101DF0003091A8022817390709F061C0F093A802B2
:101E0000E093A702DF91CF910895EA01CE17DF0793
:101E1000E8F54A815B819E0141155105B1F7E90161
:101E2000FB83EA8349915991C40FD51FEC17FD0735
:101E300061F4808191810296840F951FE901998355
:101E40008883828193819B838A83F0E0E0E012960D
:101E50008D919C9113970097B9F52D913C91119715
:101E6000CD010296820F931F2091A7023091A80204
:101E70002817390739F6309751F51092AA021092B7
:101E8000A902B093A802A093A702BCCFD383C283B8
:101E900040815181840F951FC817D90761F44E5FA7
:101EA0005F4F88819981480F591F518340838A81F0
:101EB0009B81938382832115310509F0B0CFF09384
:101EC000AA02E093A9029ECFFD01DC01C0CF1382DC
:101ED0001282D7CFFB01DC0104C08D9101908019E3
:101EE00021F441505040C8F7881B990B0895F8948D
:021EF000FFCF22
:101EF2000000AB028000000000009E053C063F058A
:101F0200060670054E0562050000000048071B0723
:0E1F12009B07F10614070107F2060D0A0000F6
:00000001FF
